:040000007EEF3FF060
:060008004B825EED37F0B3
:105C4E0012001200AE5012008B908B928B948B969A
:105C5E008B988B9A8D908D921200016E9EA83AEFC2
:105C6E002EF03CEF2EF035EF2EF001C0ADFF1200FE
:105C7E000001606F9EA846EF2EF048EF2EF041EF28
:105C8E002EF060C0ADFF1200190EAF6EAC84AC9852
:105C9E00AB8EAB9CAB88AC9CAC8A9E9A9D8A120054
:105CAE00D59CD59AD596D550F80B0509D56E850E8F
:105CBE00D76EED0ED66EF294F28AF28CF28E120040
:105CCE00C150F00B0D09C16ECF0EC116C30EC21618
:105CDE00C050F80B0609C06EC050C70B1009C06E3D
:105CEE00C08E9D8C120001C006F084EF2EF006507F
:105CFE00D96EDA6A02C0DFFF062A0406D8A00506AE
:105D0E00042806E10528D8A48FEF2EF091EF2EF08F
:105D1E007EEF2EF0120008BE97EF2EF099EF2EF0C8
:105D2E009FEF2EF007C007F008C008F0ABEF2EF083
:105D3E0007C009F008C00AF0091E0A1E094A0A2AFD
:105D4E0009C007F00AC008F01200210E236E1EC013
:105D5E0024F0000E276E000E266E000E2E6E000E24
:105D6E002D6E240E186E1FC019F020C01AF0230ECF
:105D7E001B6E06EC2FF01E502624D96EDA6ADF6AEF
:105D8E001200730ED36E9280C00E946E040E966E39
:105D9E001F0E956E948E949C929492968C6A899610
:105DAE0057EC2EF067EC2EF04BEC2EF0D58EC28019
:105DBE00490E0001616F7E0E626FB4EC2FF012007F
:105DCE00500EF66E5C0EF76E000EF86E0900F5CFF3
:105DDE00E2F00900F5CFE3F000EEC0F0220EEE6A1D
:105DEE00E806FDE100EE3AF0110EEE6AE806FDE17E
:105DFE004B904B92000EF86E0001FEEF32F019C080
:105E0E001CF01AC01DF014EF2FF018C00BF01C0E72
:105E1E000C6E1BC00DF074EC36F01CC0F6FF1DC0EE
:105E2E00F7FF0800F5500009D8A420EF2FF022EF5D
:105E3E002FF00CEF2FF0000E196E000E186E1200E0
:105E4E00000E0001741B000E751B000E761B800EDB
:105E5E00771B70C060F071C061F072C062F073C0E9
:105E6E0063F074C064F075C065F076C066F077C0FC
:105E7E0067F0C3EC3CF060C070F061C071F062C0BE
:105E8E0072F063C073F0120050EF2FF0012A024A35
:105E9E00032A0150D96EDA6ADF50046E02C0F6FF93
:105EAE0003C0F7FF0800F5500418D8A461EF2FF0D7
:105EBE0063EF2FF06EEF2FF00150D96EDA6ADF50DC
:105ECE00D8A46CEF2FF06EEF2FF04DEF2FF00150A6
:105EDE00D96EDA6ADF50046E02C0F6FF03C0F7FF18
:105EEE000800F550045C016E026AD8A0020612008A
:105EFE0095EF2FF002C0F6FF03C0F7FFF86A050E0C
:105F0E00F76403D00800F55005D0F6CFE1FFF7CFC8
:105F1E00E2FFE75034EC2EF0024A032A02C0F6FFED
:105F2E0003C0F7FFF86A050EF76403D00800F550BA
:105F3E0005D0F6CFE1FFF7CFE2FFE7500009D8A476
:105F4E00ABEF2FF0ADEF2FF081EF2FF00D0E34EC05
:105F5E002EF00A0E34EC2EF01200CBEF2FF061C0B3
:105F6E00F6FF62C0F7FFF86A050EF76403D008006B
:105F7E00F55005D0F6CFE1FFF7CFE2FFE7503FEC4B
:105F8E002EF00001614B622B61C0F6FF62C0F7FF7D
:105F9E00F86A050EF76403D00800F55005D0F6CF69
:105FAE00E1FFF7CFE2FFE7500009D8A4E1EF2FF0B1
:105FBE00E3EF2FF0B6EF2FF00D0E3FEC2EF00A0EA2
:105FCE003FEC2EF01200C350C4CFA4F00001A56B1D
:105FDE00A4C0A5F0A46BA411A66FA551A76F000EC7
:105FEE00726FC00E736F7F0E746F440E756FA6C006
:105FFE0060F0A7C061F0000E61BFFF0E626F636FAD
:10600E00010E98EC35F060C06EF061C06FF062C0AA
:10601E0070F063C071F0E6EC38F06EC087F06FC0C0
:10602E0088F070C089F071C08AF0000E00018B6F8D
:10603E00000E8C6F480E8D6F420E8E6FAFEC3AF0E5
:10604E0087C0A0F088C0A1F089C0A2F08AC0A3F0DA
:10605E0012000350D8B436EF30F038EF30F040EF86
:10606E0030F00350D8A43EEF30F040EF30F045EF63
:10607E0030F0015027EC2EF084EF30F00350D96E43
:10608E00DA6A090ED926DE50DE10D8B451EF30F0A0
:10609E0053EF30F06CEF30F00350D96EDA6A090E20
:1060AE00D9260350E16EE26A020EE126DE50E65C6E
:1060BE00E650800A086EDE50800A0858D8B06AEFA3
:1060CE0030F06CEF30F084EF30F00350D96EDA6AB6
:1060DE00020ED926DF50046E0350D96EDA6ADF50F5
:1060EE000424D96EDA6A01C0DFFF0350D96EDA6A72
:1060FE00020ED926DE2A000EDD221200066A02BE2C
:10610E008DEF30F08BEF30F093EF30F0016C021E1C
:10611E00D8B0022A010E066E04BE9AEF30F098EF48
:10612E0030F09EEF30F0036C041ED8B0042A0350FA
:10613E000410D8B4A5EF30F0A7EF30F0CBEF30F06D
:10614E00010E056EAFEF30F0D89003360436052AF7
:10615E0004AEB4EF30F0B6EF30F0ABEF30F00350EA
:10616E00015C04500258D8A0BFEF30F0C1EF30F000
:10617E00C5EF30F00350015E0450025AD89004323D
:10618E000332052EB6EF30F00650D8B4D1EF30F012
:10619E00D3EF30F0D7EF30F0016C021ED8B0022AE8
:1061AE0001C001F002C002F012000001656B61BF78
:1061BE00E5EF30F0E3EF30F0EBEF30F0606D611FA4
:1061CE00D8B0612B010E656F63BFF2EF30F0F0EFC8
:1061DE0030F0F6EF30F0626D631FD8B0632B625172
:1061EE006311D8B4FDEF30F0FFEF30F023EF31F054
:1061FE00010E646F07EF31F0D89062376337642B6E
:10620E0063AF0CEF31F00EEF31F003EF31F062516E
:10621E00605D63516159D8A017EF31F019EF31F07D
:10622E001DEF31F06251605F6351615BD890633353
:10623E006233642F0EEF31F06551D8B429EF31F08F
:10624E002BEF31F02FEF31F0606D611FD8B0612B65
:10625E0060C060F061C061F01200066A04BE3CEFDF
:10626E0031F03AEF31F042EF31F0036C041ED8B04A
:10627E00042A010E066E02BE49EF31F047EF31F0EF
:10628E004FEF31F0016C021ED8B0022A010E061A31
:10629E00000E086E000E076E03500410D8B45AEFAD
:1062AE0031F05CEF31F084EF31F0010E056E64EFEA
:1062BE0031F0D89003360436052A04AE69EF31F07A
:1062CE006BEF31F060EF31F0D8900736083603509F
:1062DE00015C04500258D8A077EF31F079EF31F01D
:1062EE007EEF31F00350015E0450025A0780D890C1
:1062FE0004320332052E6BEF31F00650D8B48AEF1C
:10630E0031F08CEF31F090EF31F0076C081ED8B001
:10631E00082A07C001F008C002F012000001656BE8
:10632E0063BF9EEF31F09CEF31F0A4EF31F0626D60
:10633E00631FD8B0632B010E656F61BFABEF31F0F9
:10634E00A9EF31F0B1EF31F0606D611FD8B0612B64
:10635E00010E651B000E676F000E666F62516311B2
:10636E00D8B4BCEF31F0BEEF31F0E6EF31F0010EF4
:10637E00646FC6EF31F0D89062376337642B63AF2A
:10638E00CBEF31F0CDEF31F0C2EF31F0D890663770
:10639E0067376251605D63516159D8A0D9EF31F012
:1063AE00DBEF31F0E0EF31F06251605F6351615B22
:1063BE006681D89063336233642FCDEF31F065512F
:1063CE00D8B4ECEF31F0EEEF31F0F2EF31F0666D64
:1063DE00671FD8B0672B66C060F067C061F012000F
:1063EE00000E00016015686F000E6115696F800E5A
:1063FE0062156A6F7F0E63156B6F685169116A11B2
:10640E006B11D8A40DEF32F00FEF32F017EF32F020
:10641E00000E606F000E616F000E626F000E636FF4
:10642E00000E6415686F000E6515696F800E661597
:10643E006A6F7F0E67156B6F685169116A116B1168
:10644E00D8A42CEF32F02EEF32F036EF32F0000EF1
:10645E00646F000E656F000E666F000E676F63AFA0
:10646E003BEF32F03DEF32F046EF32F0606D611FE0
:10647E00D8B0612B621FD8B0622B800E635767AF06
:10648E004BEF32F04DEF32F056EF32F0646D651F88
:10649E00D8B0652B661FD8B0662B800E6757000EDE
:1064AE00601B000E611B000E621B800E631B000E34
:1064BE00641B000E651B000E661B800E671B64516D
:1064CE00605D655161596651625967516359D8B023
:1064DE0073EF32F075EF32F078EF32F0D89079EF4B
:1064EE0032F0D88012000001A235A335A96FA95150
:1064FE00D8A484EF32F086EF32F090EF32F0000E37
:10650E00A06F000EA16F000EA26F000EA36FFDEF25
:10651E0032F0A0C0A4F0A1C0A5F0A2C0A6F0A3C006
:10652E00A7F0200EA0EF32F0D890A733A633A533F4
:10653E00A433E82E9BEF32F0A451A86FA28FFF0E6A
:10654E00A017FF0EA117FF0EA217000EA317960E8F
:10655E00A95FA9BFB7EF32F0B5EF32F0CDEF32F051
:10656E00A951800A970FD8B0BFEF32F0C1EF32F0C9
:10657E00C3EF32F086EF32F0D890A333A233A133BB
:10658E00A033A93FC3EF32F0E5EF32F01F0EA9653D
:10659E00D3EF32F0D5EF32F0DDEF32F086EF32F09E
:1065AE00D890A037A137A237A337A907A951D8A4ED
:1065BE00E3EF32F0E5EF32F0D7EF32F0A851D8B476
:1065CE00EBEF32F0EDEF32F0F5EF32F0A31FA21F3A
:1065DE00A11FA06D000EA123A223A323A0C0A0F093
:1065EE00A1C0A1F0A2C0A2F0A3C0A3F01200C8ECFB
:1065FE002EF0EAEC2FF0A0C0BCF0A1C0BDF0A2C0FE
:10660E00BEF0A3C0BFF0BCC0AAF0BDC0ABF0BEC010
:10661E00ACF0BFC0ADF0CBEC34F00001E151D8B41A
:10662E001BEF33F01DEF33F027EF33F0BCC06CF0EF
:10663E00BDC06DF0BEC06EF0BFC06FF08CEC33F01D
:10664E000001E051D8B42EEF33F030EF33F000EF0D
:10665E0033F0E3BF3CEF33F0E35109E1120EE25D9C
:10666E00D8A03CEF33F03EEF33F052EF33F0E3BF00
:10667E004CEF33F0E35107E1160EE25DD8B04AEF6E
:10668E0033F04CEF33F052EF33F08C8E8C9C8C9AAF
:10669E00898600EF33F0E3BF5EEF33F0E35109E19B
:1066AE00160EE25DD8A05EEF33F060EF33F074EFBC
:1066BE0033F0E3BF6EEF33F0E35107E11A0EE25D04
:1066CE00D8B06CEF33F06EEF33F074EF33F08C9E86
:1066DE008C8C8C9A899600EF33F0E3BF80EF33F009
:1066EE00E35109E11A0EE25DD8A080EF33F082EF9C
:1066FE0033F088EF33F08C9E8C9C8C8A899600EF59
:10670E0033F000EF33F07EEF3FF06CC060F06DC001
:10671E0061F06EC062F06FC063F0000E0001646F36
:10672E00000E656FF00E666F410E676FF7EC31F07D
:10673E000001D8A0A5EF33F0A7EF33F0B3EF33F09D
:10674E00DD0E616F7E0E626FB4EC2FF08C8E8C9C22
:10675E008C9A89861EEF34F06CC060F06DC061F0CB
:10676E006EC062F06FC063F0000E646F000E656F56
:10677E00A00E666F410E676FF7EC31F00001D8A0E6
:10678E00CBEF33F0CDEF33F0F3EF33F06CC060F0BE
:10679E006DC061F06EC062F06FC063F0000E646F8A
:1067AE00000E656FF00E666F410E676FF7EC31F0FD
:1067BE000001D8B0E5EF33F0E7EF33F0F3EF33F04D
:1067CE00C90E616F7E0E626FB4EC2FF08C9E8C8CB6
:1067DE008C9A89961EEF34F06FBFF8EF33F0FAEF14
:1067EE0033F01EEF34F06CC060F06DC061F06EC01F
:1067FE0062F06FC063F0000E646F000E656FA00E46
:10680E00666F410E676FF7EC31F00001D8B012EFF2
:10681E0034F014EF34F01EEF34F0D30E616F7E0EB1
:10682E00626FB4EC2FF08C9E8C9C8C8A8996120031
:10683E003F0EF66E7E0EF76E20EE63F0090E090027
:10684E00F5CFDEFFE806FBE2000161BF3AEF34F060
:10685E00615107E10A0E605DD8B038EF34F03AEFBF
:10686E0034F0CAEF34F06051630FD96EDA6ADF503C
:10687E006D6F6DB145EF34F049EF34F0626B622B02
:10688E004BEF34F00001626B8B506219FE0B6219F4
:10689E008B6E6DB355EF34F059EF34F0626B622BA3
:1068AE005BEF34F00001626B62478B506219FD0B97
:1068BE0062198B6E6DB566EF34F06AEF34F0626B71
:1068CE00622B6CEF34F00001626B624762478B50B3
:1068DE006219FB0B62198B6E6DB778EF34F07CEF9B
:1068EE0034F0626B622B7EEF34F00001626B624714
:1068FE00624762478B506219F70B62198B6E6DB946
:10690E008BEF34F08FEF34F0626B622B91EF34F03B
:10691E000001626B623B8B506219EF0B62198B6E3A
:10692E006DBB9CEF34F0A0EF34F0626B622BA2EFE4
:10693E0034F00001626B623B62478B506219DF0BD1
:10694E0062198B6E6DBDAEEF34F0B2EF34F0626B48
:10695E00622BB4EF34F00001626B8D506219FE0BA6
:10696E0062198D6E6DBFBEEF34F0C2EF34F0626B04
:10697E00622BC4EF34F00001626B62478D506219D6
:10698E00FD0B62198D6E1200AAC0A0F0ABC0A1F073
:10699E00ACC0A2F0ADC0A3F07AEC32F0A0C0B8F05B
:1069AE00A1C0B9F0000E00018B6F000E8C6F200E8F
:1069BE008D6F410E8E6FB8C060F0B9C061F0000EE1
:1069CE0061BFFF0E626F636F010E98EC35F060C011
:1069DE0074F061C075F062C076F063C077F0AAC043
:1069EE0070F0ABC071F0ACC072F0ADC073F027ECBC
:1069FE002FF070C087F071C088F072C089F073C03C
:106A0E008AF0AFEC3AF087C0A0F088C0A1F089C040
:106A1E00A2F08AC0A3F07AEC32F0A0C0B0F0A1C010
:106A2E00B1F0B8C060F0B9C061F0000E0001636F44
:106A3E000A0E626F95EC31F060C0B2F061C0B3F037
:106A4E00B8C060F0B9C061F0000E0001636F0A0EAD
:106A5E00626FDCEC30F060C0B4F061C0B5F0B0C075
:106A6E00B6F0B1C0B7F0000E0001BB6F000EBA6FEA
:106A7E00BA51020DF350B20FD96EDA6ADECF60F062
:106A8E00DDCF61F01FEC34F00001BA05BB11D8A4C4
:106A9E0053EF35F055EF35F056EF35F08D820B0E86
:106AAE000001AF6F260EAE6F5D0EE82EFED7AE2F35
:106ABE00FCD7AF2FFAD700D00001BA4BBB2BBBBF10
:106ACE0072EF35F0BB5109E1020EBA5DD8A072EF3C
:106ADE0035F074EF35F03FEF35F08D92B6C060F0C3
:106AEE00B7C061F01FEC34F00B0E0001AF6F260E35
:106AFE00AE6F5D0EE82EFED7AE2FFCD7AF2FFAD7B6
:106B0E0000D02BEC2EF0060E0001AF6F130EAE6F01
:106B1E00AD0EE82EFED7AE2FFCD7AF2FFAD700D092
:106B2E0012000001686F00016851D8B4A1EF35F072
:106B3E00A3EF35F0C5EF35F063BFAAEF35F0A8EF40
:106B4E0035F0C5EF35F060C064F061C065F062C02D
:106B5E0066F063C067F0641F651F661F671F642BB6
:106B6E00000E65236623672364C06AF065C06BF070
:106B7E0066C06CF067C06DF0CDEF35F060C06AF0A6
:106B8E0061C06BF062C06CF063C06DF0605161115A
:106B9E0062116311D8A4D6EF35F0D8EF35F0E2EFDD
:106BAE0035F0000E606F000E616F000E626F000E0A
:106BBE00636F73EF36F0960E696FECEF35F0692B5D
:106BCE00D8906D336C336B336A33000E6A15646F75
:106BDE00000E6B15656F000E6C15666FFE0E6D1553
:106BEE00676F6451651166116711D8A401EF36F015
:106BFE0003EF36F0E6EF35F011EF36F0692B010EAC
:106C0E006A27000E6B236C236D23D8906D336C3383
:106C1E006B336A33000E6A15646F000E6B15656F69
:106C2E00000E6C15666FFF0E6D15676F6451651162
:106C3E0066116711D8A426EF36F028EF36F005EF6F
:106C4E0036F030EF36F06907D8906A376B376C370D
:106C5E006D376CBF35EF36F037EF36F03FEF36F06D
:106C6E00020E69613DEF36F03FEF36F02AEF36F057
:106C7E0069B144EF36F046EF36F047EF36F06C9FD1
:106C8E00D890693369C064F0656B666B676B64C0DE
:106C9E0067F0666B656B646B64516A1365516B13B9
:106CAE0066516C1367516D136851D8B461EF36F0AD
:106CBE0063EF36F06BEF36F063BF6AEF36F068EFD6
:106CCE0036F06BEF36F06D8F6AC060F06BC061F01E
:106CDE006CC062F06DC063F012000C50D96EDA6AAF
:106CEE00DECFF6FFDDCFF7FF0800F550250AD8A45A
:106CFE0083EF36F085EF36F04CEF37F00C50D96E4F
:106D0E00DA6ADE2A000EDD22000E3B6E000E3A6EAF
:106D1E003AC040F03C683D680C50D96EDA6ADECF5E
:106D2E0011F0DDCF12F011C0F6FF12C0F7FF080010
:106D3E00F550640AD8B4A6EF36F0A8EF36F0B6EFE9
:106D4E0036F011C0F6FF12C0F7FF0800F550690AC1
:106D5E00D8A4B4EF36F0B6EF36F044EF37F00D505E
:106D6E00D96EDA6A020EDF26DF5CD96EDA6ADECF02
:106D7E0013F0DECF14F0010E11240E6E000E122051
:106D8E000F6E0C50D96EDA6A0EC0DEFF0FC0DDFF3B
:106D9E00200E176E14BED6EF36F0D9EF36F0010E78
:106DAE00DAEF36F0000E106E17061750C00FD96EC0
:106DBE00DA6A13C001F014C002F0000E046E0A0E5F
:106DCE00036E85EC30F001C007F002C008F092ECC3
:106DDE002EF00750300FDF6E13C001F014C002F01A
:106DEE00000E046E0A0E036E34EC31F001C013F087
:106DFE0002C014F013501410D8B408EF37F00AEF95
:106E0E0037F012EF37F01750D8A410EF37F012EF1B
:106E1E0037F0DBEF36F01750D8B418EF37F01AEF23
:106E2E0037F039EF37F01050D8B420EF37F022EFAB
:106E3E0037F039EF37F017061750C00FD96EDA6AF0
:106E4E002D0EDF6E39EF37F01750C00FD96EDA6A9C
:106E5E00DF500E6E0E50016E026A0BC003F030EC66
:106E6E0030F0172A200E1718D8A440EF37F042EF53
:106E7E0037F02BEF37F05DEF37F00C50D96EDA6A42
:106E8E00DE2A000EDD225DEF37F00C50D96EDA6A85
:106E9E00DECFF6FFDDCFF7FF0800F550016E026A78
:106EAE000BC003F030EC30F044EF37F01200060068
:106EBE00E1CF31F0E2CF32F0D9CF33F0DACF34F088
:106ECE00F6CF35F0F7CF36F0F8CF37F0F5CF38F004
:106EDE00F2AA74EF37F076EF37F084EF37F0F2A4C2
:106EEE007BEF37F07DEF37F084EF37F0850ED76EFE
:106EFE00ED0ED66EF294F28AC2829DAC89EF37F017
:106F0E008BEF37F093EF37F09EAC90EF37F092EFB8
:106F1E0037F093EF37F09E9C9EAA98EF37F09AEFDA
:106F2E0037F0D4EF38F029EC2EF0396E0A0E3918FE
:106F3E00D8B4A4EF37F0A6EF37F0CCEF37F00D0E44
:106F4E003918D8B4ADEF37F0AFEF37F0CCEF37F0EC
:106F5E003FBEBDEF37F03F5007E1040E3E5CD8B0A8
:106F6E00BBEF37F0BDEF37F0CCEF37F03E50460FAA
:106F7E00D96EDA6A39C0DFFF3E4A3F2A3E50460FCD
:106F8E00D96EDA6ADF6AD3EF38F03E50460FD96E0B
:106F9E00DA6ADF6A460E016EEF0E026E7E0E036E29
:106FAE004BEC2FF001500210D8A4E0EF37F0E2EFD7
:106FBE0037F0F8EF37F08C9E8C9C8C9A89968984EA
:106FCE00030E306E8A0E2F6E560EE82EFED72F2E23
:106FDE00FCD7302EFAD789940001E16BE06BC3EF3A
:106FEE0038F0460E016EF30E026E7E0E036E4BEC03
:106FFE002FF001500210D8A407EF38F009EF38F047
:10700E004BEF38F0010E0001E06FE16BE3BF19EFBB
:10701E0038F0E35109E1120EE25DD8A019EF38F015
:10702E001BEF38F03CEF38F0E3BF29EF38F0E351B7
:10703E0007E11A0EE25DD8B027EF38F029EF38F0ED
:10704E003CEF38F0E24BE32B410E1E6EE70E1F6E47
:10705E007E0E206EE2C021F0E3C022F0ACEC2EF0EA
:10706E00410E026E036A7FEC2FF08984030E306EA0
:10707E008A0E2F6E560EE82EFED72F2EFCD7302EF0
:10708E00FAD78994C3EF38F0460E016EF60E026EF3
:10709E007E0E036E4BEC2FF001500210D8A45AEF67
:1070AE0038F05CEF38F09FEF38F0010E0001E06F22
:1070BE00E16BE3BF6CEF38F0E35109E1130EE25DD3
:1070CE00D8A06CEF38F06EEF38F090EF38F0E3BFE9
:1070DE007CEF38F0E35107E11B0EE25DD8B07AEF9A
:1070EE0038F07CEF38F090EF38F0E207D8A0E307E5
:1070FE00410E1E6EE70E1F6E7E0E206EE2C021F058
:10710E00E3C022F0ACEC2EF0410E026E036A7FEC6F
:10711E002FF08984030E306E8A0E2F6E560EE82ED7
:10712E00FED72F2EFCD7302EFAD78994C3EF38F026
:10713E00460E016EF90E026E7E0E036E4BEC2FF0B4
:10714E0001500210D8A4AEEF38F0B0EF38F0C3EF14
:10715E0038F0010E0001E16FE06B8984030E306E92
:10716E008A0E2F6E560EE82EFED72F2EFCD7302EFF
:10717E00FAD78994C3EF38F0000E3F6E000E3E6EC4
:10718E00460E016E000E036E000E026E000E056EB0
:10719E00050E046E7AEC2EF09E9A38C0F5FF37C0BD
:1071AE00F8FF36C0F7FF35C0F6FF34C0DAFF33C044
:1071BE00D9FF32C0E2FF31C0E1FF4B921100000156
:1071CE007151800B7E6F71517125856F70AFF2EF2B
:1071DE0038F0F4EF38F0F5EF38F085818551D8B4FA
:1071EE00FBEF38F0FDEF38F011EF39F08529D8A418
:1071FE0003EF39F005EF39F00DEF39F0000E6E6F39
:10720E00000E6F6F000E706F000E716F708F716BCE
:10721E0019EF39F0000E6E6F000E6F6F000E706F6B
:10722E00000E716F7551800B7E1B75517525866F23
:10723E0074AF24EF39F026EF39F027EF39F086815D
:10724E008651D8B42DEF39F02FEF39F043EF39F0E6
:10725E008629D8A435EF39F037EF39F03FEF39F002
:10726E00000E726F000E736F000E746F000E756F4E
:10727E00748F756B4BEF39F0000E726F000E736FDB
:10728E00000E746F000E756F7251731174117511BB
:10729E00D8A454EF39F056EF39F06EEF39F0000EF6
:1072AE006E6F000E6F6F000E706F000E716F800E9E
:1072BE0070137F0E71137E5171136EC06EF06FC01E
:1072CE006FF070C070F071C071F0AEEF3AF0855192
:1072DE00D8A474EF39F076EF39F080EF39F0000E64
:1072EE006E6F000E6F6F000E706F000E716FAEEF4F
:1072FE003AF0865185C076F0776B765F000E775B3D
:10730E007F0E76257F6F000E7721806F6EC07AF02C
:10731E006FC07BF070C07CF071C07DF0000E6E6FA0
:10732E00000E6F6F000E706F000E716F000E816F8A
:10733E00000E826F000E836F000E846F866BE0EF7F
:10734E0039F08651D8B4AEEF39F0B0EF39F0C7EF5F
:10735E0039F0D8907A377B377C377D37D8906E37B7
:10736E006F377037713784AFBFEF39F0C1EF39F037
:10737E00C2EF39F06E81D8908137823783378437E8
:10738E0072517A5D73517B5974517C5975517D5987
:10739E00D8A0D4EF39F0D6EF39F0DFEF39F0848D85
:1073AE0072517A5F73517B5B74517C5B75517D5B5F
:1073BE00862B190E8665E6EF39F0E8EF39F0A8EF67
:1073CE0039F07A517B117C117D11D8B4F1EF39F07F
:1073DE00F3EF39F00BEF3AF081810BEF3AF0D890E2
:1073EE006E376F377037713784AF00EF3AF002EFB8
:1073FE003AF003EF3AF06E81D890813782378337B7
:10740E0084377F07D8A0800770AF10EF3AF012EFE5
:10741E003AF0F6EF39F0866B84AF18EF3AF01AEFC8
:10742E003AF03EEF3AF0FF0E8115766FFF0E8215A1
:10743E00776FFF0E8315786F7F0E8415796F7651F7
:10744E00771178117911D8B42FEF3AF031EF3AF075
:10745E0035EF3AF0010E866F3EEF3AF06EA13AEF3D
:10746E003AF03CEF3AF03EEF3AF031EF3AF0865117
:10747E00D8B444EF3AF046EF3AF06AEF3AF0010E24
:10748E006E27000E6F237023712371A151EF3AF016
:10749E0053EF3AF06AEF3AF06EC076F06FC077F0C5
:1074AE0070C078F071C079F07935793378337733ED
:1074BE00763376C06EF077C06FF078C070F079C01A
:1074CE0071F07F4B802B80BF75EF3AF0805108E151
:1074DE007F29D8A075EF3AF077EF3AF082EF3AF0C5
:1074EE00000E806F7F69000E6E6F000E6F6F000EC4
:1074FE00706F000E716F80BF8FEF3AF0805106E112
:10750E007F05D8B08DEF3AF08FEF3AF09CEF3AF05E
:10751E00000E806F000E7F6F000E6E6F000E6F6F8D
:10752E00000E706F000E716F7E6B7FC085F085A1AF
:10753E00A3EF3AF0A5EF3AF0A8EF3AF0708FA9EF6B
:10754E003AF0709FD8908531716F62EF39F012006A
:10755E0000018A51800B936F8A518A25996F89AFEA
:10756E00BBEF3AF0BDEF3AF0BEEF3AF09981995188
:10757E00D8B4C4EF3AF0C6EF3AF0D9EF3AF0992901
:10758E00D8A4CCEF3AF0CEEF3AF0D6EF3AF0000EA8
:10759E00876F000E886F000E896F000E8A6F898FBD
:1075AE00E1EF3AF0000E876F000E886F000E896FC4
:1075BE00000E8A6F8E51800B931B8E518E25986F05
:1075CE008DAFECEF3AF0EEEF3AF0EFEF3AF0988144
:1075DE009851D8B4F5EF3AF0F7EF3AF00AEF3BF0E6
:1075EE009829D8A4FDEF3AF0FFEF3AF007EF3BF001
:1075FE00000E8B6F000E8C6F000E8D6F000E8E6F57
:10760E008D8F12EF3BF0000E8B6F000E8C6F000E05
:10761E008D6F000E8E6F9851D8B418EF3BF01AEFA5
:10762E003BF022EF3BF09951D8A420EF3BF022EF34
:10763E003BF02CEF3BF0000E876F000E886F000EB4
:10764E00896F000E8A6FC2EF3CF08D518703F3CF26
:10765E009EF0F4CF9FF09E51946F956B966B976B47
:10766E009F519A6F9B6B9C6B9D6B8C518803F3CFD4
:10767E009EF0F4CF9FF09E519427000E95239623F3
:10768E0097239F519A27000E9B239C239D238B515A
:10769E008903F3CF9EF0F4CF9FF09E519427000EF6
:1076AE009523962397239F519A27000E9B239C2365
:1076BE009D2396C097F095C096F094C095F0946B6C
:1076CE008B518803F3CF9EF0F4CF9FF09E519427F9
:1076DE009F519523000E9623000E97238C518703FE
:1076EE00F3CF9EF0F4CF9FF09E5194279F51952398
:1076FE00000E9623000E972396C097F095C096F035
:10770E0094C095F0946B8B518703F3CF9EF0F4CF1A
:10771E009FF09E5194279F519523000E9623000EA5
:10772E0097238D518803F3CF9EF0F4CF9FF09E5197
:10773E009A279F519B23000E9C23000E9D238C5154
:10774E008903F3CF9EF0F4CF9FF09E519A279F515D
:10775E009B23000E9C23000E9D238D518903F3CF96
:10776E009EF0F4CF9FF09E518F6F9F51906F916B53
:10777E00926B91C092F090C091F08FC090F08F6B91
:10778E008F519A2790519B2391519C2392519D2367
:10779E0094C08FF095C090F096C091F097C092F083
:1077AE00190EDFEF3BF0D8909233913390338F3335
:1077BE00E82EDAEF3BF08F519A2790519B2391518F
:1077CE009C2392519D2396C097F095C096F094C03D
:1077DE0095F0946B985199C08FF0906B8F27000E97
:1077EE009023820E8F259E6FFF0E90219F6F15EFB7
:1077FE003CF0D8909A379B379C379D3797AF0AEF5E
:10780E003CF00CEF3CF00DEF3CF09A81D8909437A1
:10781E009537963797379E07D8A09F079CAF1AEFDC
:10782E003CF01CEF3CF000EF3CF0986B97AF22EF72
:10783E003CF024EF3CF048EF3CF0FF0E94158F6FB8
:10784E00FF0E9515906FFF0E9615916F7F0E971583
:10785E00926F8F51901191119211D8B439EF3CF073
:10786E003BEF3CF03FEF3CF0010E986F48EF3CF0E1
:10787E009AA144EF3CF046EF3CF048EF3CF03BEF72
:10788E003CF09851D8B44EEF3CF050EF3CF074EF12
:10789E003CF0010E9A27000E9B239C239D239DA155
:1078AE005BEF3CF05DEF3CF074EF3CF09AC08FF074
:1078BE009BC090F09CC091F09DC092F09235923397
:1078CE00913390338F338FC09AF090C09BF091C05C
:1078DE009CF092C09DF09E4B9F2B9FBF7FEF3CF084
:1078EE009F5108E19E29D8A07FEF3CF081EF3CF03C
:1078FE008BEF3CF0000E9A6F000E9B6F800E9C6F0C
:10790E007F0E9D6FB8EF3CF09FBF98EF3CF09F51FC
:10791E0006E19E05D8B096EF3CF098EF3CF0A3EF51
:10792E003CF0000E9A6F000E9B6F000E9C6F000EC7
:10793E009D6F936BB8EF3CF09EC099F0FF0E9A17B7
:10794E00FF0E9B177F0E9C17000E9D1799A1B2EF8D
:10795E003CF0B4EF3CF0B5EF3CF09C8FD8909931F1
:10796E009D6F93519D139AC087F09BC088F09CC069
:10797E0089F09DC08AF0120000016351800B6C6F7C
:10798E00635163256E6F62AFCFEF3CF0D1EF3CF0E9
:10799E00D2EF3CF06E816E51D8B4D8EF3CF0DAEFF6
:1079AE003CF0EEEF3CF06E29D8A4E0EF3CF0E2EFB5
:1079BE003CF0EAEF3CF0000E606F000E616F000EBF
:1079CE00626F000E636F628F636BF6EF3CF0000E1A
:1079DE00606F000E616F000E626F000E636F675175
:1079EE00800B6D6F6C516D19D8B400EF3DF002EF46
:1079FE003DF003EF3DF06C8D675167256D6F66AFFF
:107A0E000BEF3DF00DEF3DF00EEF3DF06D816D5142
:107A1E00D8B414EF3DF016EF3DF02AEF3DF06D298E
:107A2E00D8A41CEF3DF01EEF3DF026EF3DF0000E0A
:107A3E00646F000E656F000E666F000E676F668FC7
:107A4E00676B32EF3DF0000E646F000E656F000E37
:107A5E00666F000E676F6E516D5DD8B039EF3DF0F9
:107A6E003BEF3DF062EF3DF06CAD40EF3DF042EF8D
:107A7E003DF044EF3DF0800E6C1B6EC06FF06DC09C
:107A8E006EF06FC06DF060C06FF064C060F06FC0DC
:107A9E0064F061C06FF065C061F06FC065F062C0E8
:107AAE006FF066C062F06FC066F063C06FF067C0C3
:107ABE0063F06FC067F06F6B6E516DC068F0696BED
:107ACE00685F000E695B69BF76EF3DF0695109E1B1
:107ADE001A0E685DD8A076EF3DF078EF3DF0AFEF6F
:107AEE003DF06051611162116311D8A481EF3DF038
:107AFE0084EF3DF0010E85EF3DF0000E6F6F000E2E
:107B0E00606F000E616F000E626F000E636F6DC0CE
:107B1E006EF0B8EF3DF06FA197EF3DF099EF3DF0AD
:107B2E009FEF3DF0D8906F3101096F6FA1EF3DF0DF
:107B3E00D8906F3360A1A6EF3DF0A8EF3DF0A9EF0E
:107B4E003DF06F8F633563336233613360336E2B79
:107B5E006D516E5DD8A0B6EF3DF0B8EF3DF092EFEF
:107B6E003DF06CBDBDEF3DF0BFEF3DF0FFEF3DF0E2
:107B7E006E51D8A4C5EF3DF0C7EF3DF0D1EF3DF00B
:107B8E00000E606F000E616F000E626F000E636F6D
:107B9E001EEF3FF0645160276551612366516223E9
:107BAE006751632363A1DEEF3DF0E0EF3DF08CEF14
:107BBE003EF06FA1E5EF3DF0E7EF3DF0EDEF3DF06C
:107BCE00D8906F3101096F6FEFEF3DF0D8906F33A2
:107BDE0060A1F4EF3DF0F6EF3DF0F7EF3DF06F8F63
:107BEE00633563336233613360336E2B8CEF3EF05B
:107BFE006451605D65516159665162596351800AE5
:107C0E00686F6751800A6859D8B010EF3EF012EFD6
:107C1E003EF03DEF3EF06051645D686F6151655915
:107C2E00696F625166596A6F635167596B6FFF0EC8
:107C3E006825606FFF0E6921616FFF0E6A21626F0A
:107C4E00FF0E6B21636F800E6C1B6F6D6F51D8A48E
:107C5E0033EF3EF035EF3EF045EF3EF0010E60277C
:107C6E00000E61236223632345EF3EF06451605F93
:107C7E006551615B6651625B6751635B6051611177
:107C8E0062116311D8A44EEF3EF050EF3EF085EF37
:107C9E003EF06F51D8A456EF3EF058EF3EF085EF10
:107CAE003EF0000E606F000E616F000E626F000EF0
:107CBE00636F1EEF3FF0D8906037613762376337DE
:107CCE006FAF6CEF3EF06EEF3EF06FEF3EF0608107
:107CDE006FA174EF3EF076EF3EF07AEF3EF0D88073
:107CEE006F377CEF3EF0D8906F376E51D8B482EF7D
:107CFE003EF084EF3EF085EF3EF06E0762AF8AEF06
:107D0E003EF08CEF3EF062EF3EF06D6B6FAF92EF98
:107D1E003EF094EF3EF0ACEF3EF06FC068F07F0E99
:107D2E006817D8B49DEF3EF09FEF3EF0A3EF3EF004
:107D3E00010E6D6FACEF3EF060A1A8EF3EF0AAEF22
:107D4E003EF0ACEF3EF09FEF3EF06D51D8B4B2EF87
:107D5E003EF0B4EF3EF0DFEF3EF0010E6027000E76
:107D6E0061236223632363A1BFEF3EF0C1EF3EF0B8
:107D7E00DFEF3EF060C068F061C069F062C06AF08B
:107D8E0063C06BF06B356B336A336933683368C02D
:107D9E0060F069C061F06AC062F06BC063F06E297A
:107DAE00D8B4DCEF3EF0DEEF3EF0DFEF3EF06E2BB0
:107DBE006E29D8B4E5EF3EF0E7EF3EF0EFEF3EF080
:107DCE006E51D8A4EDEF3EF0EFEF3EF000EF3FF036
:107DDE00000E606F000E616F000E626F000E636F1B
:107DEE006E51D8A4FDEF3EF0FFEF3EF000EF3FF0F6
:107DFE006C6B6EA105EF3FF007EF3FF00AEF3FF01F
:107E0E00628F0BEF3FF0629FD8906E31636F6CAF55
:107E1E0013EF3FF015EF3FF016EF3FF0638F60C0AA
:107E2E0060F061C061F062C062F063C063F0120086
:107E3E00003F066B4F666D7D077F6F0D0A436F6DBA
:107E4E00616E646F7320446973706F6E69766569D5
:107E5E00733A200D0A4120202020204D6F646F20A0
:107E6E004175746F6D617469636F0D0A4D2B20201F
:107E7E0020204D616E75616C202B54656D7065729E
:107E8E0061747572610D0A4D2D202020204D616E9A
:107E9E0075616C202D54656D7065726174757261BB
:107EAE000D0A4F66662020204465736C6967617207
:107EBE00206F20412F430D0A0D0A00412F433A2017
:107ECE0032322E3000412F433A2032362E300041CE
:107EDE002F433A2031382E3000412F433A2025646B
:107EEE00004F6666004D2B004D2D00410000E7EF60
:027EFE002EF064
:020000040030CA
:0E000000FF081F1EFF8281FF0FC00FE00F40A0
:00000001FF
