:040000005AEF00F0C3
:060008003C8256ED09F0F8
:100018003C80D8CF31F0E8CF32F0E0CF33F0F2A413
:1000280018EF00F01AEF00F052EF00F03806D8A0F1
:10003800390638503910D8A424EF00F026EF00F024
:1000480051EF00F08CBE2BEF00F02EEF00F0010E08
:100058002FEF00F0000EFF0A306E303230328C5035
:1000680030187F0B30188C6E8CBC3DEF00F040EFE1
:1000780000F0010E41EF00F0000EFF0A306E303A3A
:10008800304630468C503018BF0B30188C6E3AC052
:1000980024F03BC025F09BEC07F0F29433C0E0FF5E
:1000A80032C0E8FF31C0D8FF3C90100065EF09F07E
:10060000000000016351800B706F63516325776FA9
:1006100062AF0DEF03F00FEF03F010EF03F07781FF
:100620007751D8B416EF03F018EF03F02CEF03F076
:100630007729D8A41EEF03F020EF03F028EF03F092
:10064000000E606F000E616F000E626F000E636F30
:10065000628F636B34EF03F0000E606F000E616F0A
:10066000000E626F000E636F6751800B701B675145
:100670006725786F66AF3FEF03F041EF03F042EF7D
:1006800003F078817851D8B448EF03F04AEF03F0D3
:100690005EEF03F07829D8A450EF03F052EF03F097
:1006A0005AEF03F0000E646F000E656F000E666F68
:1006B000000E676F668F676B66EF03F0000E646F66
:1006C000000E656F000E666F000E676F6451651156
:1006D00066116711D8A46FEF03F071EF03F089EF93
:1006E00003F0000E606F000E616F000E626F000E6F
:1006F000636F800E62137F0E63137051631360C0CB
:1007000060F061C061F062C062F063C063F0C9EF85
:1007100004F07751D8A48FEF03F091EF03F09BEF33
:1007200003F0000E606F000E616F000E626F000E2E
:10073000636FC9EF04F0785177C068F0696B685F48
:10074000000E695B7F0E6825716F000E6921726F64
:1007500060C06CF061C06DF062C06EF063C06FF09D
:10076000000E606F000E616F000E626F000E636F0F
:10077000000E736F000E746F000E756F000E766FB3
:10078000786BFBEF03F07851D8B4C9EF03F0CBEFEF
:1007900003F0E2EF03F0D8906C376D376E376F37A8
:1007A000D890603761376237633776AFDAEF03F09E
:1007B000DCEF03F0DDEF03F06081D890733774371E
:1007C0007537763764516C5D65516D5966516E5958
:1007D00067516F59D8A0EFEF03F0F1EF03F0FAEF94
:1007E00003F0768D64516C5F65516D5B66516E5B95
:1007F00067516F5B782B190E786501EF04F003EFFA
:1008000004F0C3EF03F06C516D116E116F11D8B489
:100810000CEF04F00EEF04F026EF04F0738126EFE6
:1008200004F0D890603761376237633776AF1BEFDB
:1008300004F01DEF04F01EEF04F06081D8907337D0
:100840007437753776377107D8A0720762AF2BEF10
:1008500004F02DEF04F011EF04F0786B76AF33EF76
:1008600004F035EF04F059EF04F0FF0E7315686FD4
:10087000FF0E7415696FFF0E75156A6F7F0E761582
:100880006B6F685169116A116B11D8B44AEF04F0AB
:100890004CEF04F050EF04F0010E786F59EF04F0C4
:1008A00060A155EF04F057EF04F059EF04F04CEF5E
:1008B00004F07851D8B45FEF04F061EF04F085EFF5
:1008C00004F0010E6027000E61236223632363A1FD
:1008D0006CEF04F06EEF04F085EF04F060C068F098
:1008E00061C069F062C06AF063C06BF06B356B3356
:1008F0006A336933683368C060F069C061F06AC008
:1009000062F06BC063F0714B722B72BF90EF04F01A
:10091000725108E17129D8A090EF04F092EF04F031
:100920009DEF04F0000E726F7169000E606F000E93
:10093000616F000E626F000E636F72BFAAEF04F06A
:10094000725106E17105D8B0A8EF04F0AAEF04F0E7
:10095000B7EF04F0000E726F000E716F000E606F43
:10096000000E616F000E626F000E636F706B71C0DE
:1009700077F077A1BEEF04F0C0EF04F0C3EF04F00E
:10098000628FC4EF04F0629FD8907731636F7DEF80
:1009900003F012000450800B116E04500424186EF2
:1009A00003AED5EF04F0D7EF04F0D8EF04F01880D1
:1009B0001850D8B4DEEF04F0E0EF04F0F4EF04F0E8
:1009C0001828D8A4E6EF04F0E8EF04F0F0EF04F004
:1009D000000E016E000E026E000E036E000E046E1D
:1009E000038E046AFCEF04F0000E016E000E026E2E
:1009F000000E036E000E046E0850800B111A085092
:100A00000824196E07AE07EF05F009EF05F00AEFAD
:100A100005F019801950D8B410EF05F012EF05F069
:100A200026EF05F01928D8A418EF05F01AEF05F005
:100A300022EF05F0000E056E000E066E000E076E2A
:100A4000000E086E078E086A2EEF05F0000E056E88
:100A5000000E066E000E076E000E086E05500610A2
:100A600007100810D8A437EF05F039EF05F051EF63
:100A700005F0000E016E000E026E000E036E000EF9
:100A8000046E800E03127F0E04121150041201C076
:100A900001F002C002F003C003F004C004F091EFC3
:100AA00006F01850D8A457EF05F059EF05F063EFA2
:100AB00005F0000E016E000E026E000E036E000EB9
:100AC000046E91EF06F0195018C009F00A6A095E29
:100AD000000E0A5A7F0E0924126E000E0A20136EB1
:100AE00001C00DF002C00EF003C00FF004C010F002
:100AF000000E016E000E026E000E036E000E046EFC
:100B0000000E146E000E156E000E166E000E176E9F
:100B1000196AC3EF05F01950D8B491EF05F093EFBF
:100B200005F0AAEF05F0D8900D360E360F361036C8
:100B3000D890013602360336043617AEA2EF05F020
:100B4000A4EF05F0A5EF05F00180D8901436153616
:100B50001636173605500D5C06500E5807500F58C4
:100B600008501058D8A0B7EF05F0B9EF05F0C2EF64
:100B700005F0178C05500D5E06500E5A07500F5A9F
:100B80000850105A192A190E1964C9EF05F0CBEF55
:100B900005F08BEF05F00D500E100F101010D8B4AB
:100BA000D4EF05F0D6EF05F0EEEF05F01480EEEF90
:100BB00005F0D890013602360336043617AEE3EF5F
:100BC00005F0E5EF05F0E6EF05F00180D89014366A
:100BD0001536163617361206D8A0130603AEF3EFF5
:100BE00005F0F5EF05F0D9EF05F0196A17AEFBEF48
:100BF00005F0FDEF05F021EF06F0FF0E1414096E6D
:100C0000FF0E15140A6EFF0E16140B6E7F0E1714CE
:100C10000C6E09500A100B100C10D8B412EF06F02D
:100C200014EF06F018EF06F0010E196E21EF06F032
:100C300001A01DEF06F01FEF06F021EF06F014EF04
:100C400006F01950D8B427EF06F029EF06F04DEF63
:100C500006F0010E0126000E02220322042204A047
:100C600034EF06F036EF06F04DEF06F001C009F064
:100C700002C00AF003C00BF004C00CF00C340C32BC
:100C80000B320A32093209C001F00AC002F00BC06F
:100C900003F00CC004F0124A132A13BE58EF06F0FA
:100CA000135008E11228D8A058EF06F05AEF06F0CA
:100CB00065EF06F0000E136E1268000E016E000E56
:100CC000026E000E036E000E046E13BE72EF06F08D
:100CD000135006E11204D8B070EF06F072EF06F080
:100CE0007FEF06F0000E136E000E126E000E016E06
:100CF000000E026E000E036E000E046E116A12C02A
:100D000018F018A086EF06F088EF06F08BEF06F0DB
:100D1000038E8CEF06F0039ED8901830046E45EFDA
:100D200005F01200BCEF06F0000E8B6F000E8C6F0A
:100D3000000E8D6F400E8E6FDBEF06F0000E8B6F96
:100D4000000E8C6F800E8D6F3F0E8E6FDBEF06F006
:100D5000000E8B6F000E8C6F000E8D6F3F0E8E6F2E
:100D6000DBEF06F0000E8B6F000E8C6F800E8D6F28
:100D70003E0E8E6FDBEF06F083C085F084C086F0F8
:100D800000018651000AD8B4C8EF06F0DBEF06F088
:100D90008551010AD8B494EF06F0030AD8B49EEF47
:100DA00006F0010AD8B4A8EF06F0070AD8B4B2EFEB
:100DB00006F0DBEF06F08BC060F08CC061F08DC0F8
:100DC00062F08EC063F0000E646F000E656F000E5F
:100DD000666F400E676F01EC03F060C087F061C082
:100DE00088F062C089F063C08AF0850E0001646FEC
:100DF000B10E656F050E666F390E676F87C060F0C4
:100E000088C061F089C062F08AC063F001EC03F031
:100E100060C079F061C07AF062C07BF063C07CF0A2
:100E200017EC07F079C038F07AC039F012000001F1
:100E30007B357C35826F8251D8A421EF07F023EFF8
:100E400007F02DEF07F0000E796F000E7A6F000E9D
:100E50007B6F000E7C6F9AEF07F079C07DF07AC04F
:100E60007EF07BC07FF07CC080F0200E3DEF07F06D
:100E7000D89080337F337E337D33E82E38EF07F010
:100E80007D51816F7B8FFF0E7917FF0E7A17FF0E52
:100E90007B17000E7C17960E825F82BF54EF07F01F
:100EA00052EF07F06AEF07F08251800A970FD8B02F
:100EB0005CEF07F05EEF07F060EF07F023EF07F05D
:100EC000D8907C337B337A337933823F60EF07F0FD
:100ED00082EF07F01F0E826570EF07F072EF07F0E8
:100EE0007AEF07F023EF07F0D89079377A377B371E
:100EF0007C3782078251D8A480EF07F082EF07F099
:100F000074EF07F08151D8B488EF07F08AEF07F04B
:100F100092EF07F07C1F7B1F7A1F796D000E7A23FA
:100F20007B237C2379C079F07AC07AF07BC07BF098
:100F30007CC07CF01200C5EF07F0000E2C6E000E96
:100F40002D6E000E2E6E400E2F6EE3EF07F0000E9A
:100F50002C6E000E2D6E800E2E6E3F0E2F6EE3EF68
:100F600007F0000E2C6E000E2D6E000E2E6E3F0E42
:100F70002F6EE3EF07F0000E2C6E000E2D6E800E2C
:100F80002E6E3E0E2F6EE3EF07F024C026F025C034
:100F900027F02750000AD8B4D0EF07F0E3EF07F0AE
:100FA0002650010AD8B49DEF07F0030AD8B4A7EF82
:100FB00007F0010AD8B4B1EF07F0070AD8B4BBEFC5
:100FC00007F0E3EF07F02CC001F02DC002F02EC0B7
:100FD00003F02FC004F0000E056E000E066E000E2A
:100FE000076E400E086ECAEC04F001C028F002C083
:100FF00029F003C02AF004C02BF0850E056EB10E57
:10100000066E050E076E390E086E28C001F029C065
:1010100002F02AC003F02BC004F0CAEC04F001C0B7
:101020001AF002C01BF003C01CF004C01DF01EEC3F
:1010300008F01AC038F01BC039F012001C341D34FF
:10104000236E2350D8A427EF08F029EF08F033EFE0
:1010500008F0000E1A6E000E1B6E000E1C6E000EC5
:101060001D6EA0EF08F01AC01EF01BC01FF01CC0C0
:1010700020F01DC021F0200E43EF08F0D89021325F
:1010800020321F321E32E82E3EEF08F01E50226E34
:101090001C8EFF0E1A16FF0E1B16FF0E1C16000EDE
:1010A0001D16960E235E23BE5AEF08F058EF08F087
:1010B00070EF08F02350800A970FD8B062EF08F065
:1010C00064EF08F066EF08F029EF08F0D8901D32C1
:1010D0001C321B321A32233E66EF08F088EF08F00C
:1010E0001F0E236476EF08F078EF08F080EF08F029
:1010F00029EF08F0D8901A361B361C361D36230609
:101100002350D8A486EF08F088EF08F07AEF08F0B3
:101110002250D8B48EEF08F090EF08F098EF08F066
:101120001D1E1C1E1B1E1A6C000E1B221C221D22C3
:101130001AC01AF01BC01BF01CC01CF01DC01DF013
:10114000120072EC09F088EC09F07EEC09F0000E58
:101150003B6E010E3A6E8C8E8C9C3AC060F03BC0A8
:1011600061F00CEC09F03AC083F03BC084F092ECE3
:1011700006F081A0BEEF08F0C0EF08F004EF09F020
:1011800034043510D8A4C7EF08F0C9EF08F004EF15
:1011900009F0364A372A0B0E0001906F260E8F6F2A
:1011A0005D0EE82EFED78F2FFCD7902FFAD700D0F8
:1011B000375009E1050E365CD8A0E1EF08F0E3EF07
:1011C00008F0B9EF08F03A4A3B2A000E356E000EDF
:1011D000346E000E376E000E366E3B5009E1050E80
:1011E0003A5CD8A0F6EF08F0F8EF08F0FCEF08F052
:1011F000000E3B6E010E3A6E3AC060F03BC061F0EB
:101200000CEC09F0B9EF08F0000E376E000E366EE8
:10121000B9EF08F05AEF00F036EF09F08B908B82AF
:101220008B848B968B988B9A8D908D9255EF09F0CD
:101230008B808B828B948B868B888B9A8D808D9202
:1012400055EF09F08B808B828B848B868B988B9AE1
:101250008D808D9255EF09F08B908B828B848B96CD
:101260008B988B8A8D808D9255EF09F060C062F06B
:1012700061C063F000016351000AD8B442EF09F085
:1012800055EF09F06251010AD8B40EEF09F0030AD4
:10129000D8B418EF09F0010AD8B422EF09F0070A10
:1012A000D8B42CEF09F055EF09F012000600F2A2B5
:1012B0005CEF09F05EEF09F062EF09F0000E356EA9
:1012C000010E346EF2923C921100396A386A376A24
:1012D000366A356A346A3C903C92000EF86E000122
:1012E000A1EF08F0D08ED58CD59AD586F80ED516FC
:1012F000F28AF28EF194F28CD58E1200730ED36EB8
:10130000959E959CC00E946E040E966E938012006E
:0E131000F28EF19CF288F292F28EF1901200B1
:020000040030CA
:0E000000FF081F1EFF8281FF0FC00FE00F40A0
:00000001FF
