:0400000007EF00F016
:0A0008005E827CED38F0EBEF35F07E
:106B2400000080BF5DEC36F096EF35F007EF00F023
:106B3400016E9EA8A0EF35F0A2EF35F09BEF35F083
:106B440001C0ADFF120001500302F3CF05F0F4CFF2
:106B540006F001500402F350062602500302F350DB
:106B6400062605C001F006C002F01200036E026A98
:106B74003A0E0360C0EF35F0C2EF35F0CCEF35F0DC
:106B84002F0E0364C8EF35F0CAEF35F0CCEF35F0C3
:106B9400010E026E02C001F001301200D9EF35F08F
:106BA4000250D96EDA6ADF509AEC35F0022A0250AC
:106BB400D96EDA6ADF50D8A4E2EF35F0E4EF35F0AD
:106BC400D2EF35F00D0E9AEC35F00A0E9AEC35F052
:106BD4001200240EF66E6B0EF76E000EF86E00EEC9
:106BE4005AF010EE04F00900F5CFEEFFE550E15045
:106BF400FAE100EE4EF00C0EEE6AE806FDE15E905E
:106C04005E92000EF86E000194EF35F0000E151A36
:106C1400000E161A000E171A800E181A11C001F071
:106C240012C002F013C003F014C004F015C005F044
:106C340016C006F017C007F018C008F01BEC3DF0B2
:106C440001C011F002C012F003C013F004C014F02C
:106C540012000A500B10D8B432EF36F034EF36F08D
:106C640058EF36F0010E0C6E3CEF36F0D8900A3631
:106C74000B360C2A0BAE41EF36F043EF36F038EF0B
:106C840036F00A50085C0B500958D8A04CEF36F087
:106C94004EEF36F052EF36F00A50085E0B50095AA8
:106CA400D8900B320A320C2E43EF36F008C008F0AD
:106CB40009C009F01200730ED36E9280949C190ED1
:106CC400AF6EAC84AC98AB8EAB9CAB88AC8AAC9CFE
:106CD4009E9A9D8AD59CD59AD596D550F80B0109D4
:106CE400D56EEC0ED76E770ED66EF294F28AF28CD5
:106CF400F28EC150F00B0D09C16ECF0EC116C30E3A
:106D0400C216C050F80B0609C06EC050C70B10095C
:106D1400C06EC08E9D8CD58EC2801200000E066E91
:106D2400000E056E03500410D8B49BEF36F09DEFAF
:106D340036F0C5EF36F0010E076EA5EF36F0D890A9
:106D440003360436072A04AEAAEF36F0ACEF36F069
:106D5400A1EF36F0D890053606360350015C045096
:106D64000258D8A0B8EF36F0BAEF36F0BFEF36F0DD
:106D74000350015E0450025A0580D8900432033255
:106D8400072EACEF36F005C001F006C002F0120089
:106D9400000E0114096E000E02140A6E800E031414
:106DA4000B6E7F0E04140C6E09500A100B100C109D
:106DB400D8A4DFEF36F0E1EF36F0E9EF36F0000E5D
:106DC400016E000E026E000E036E000E046E000EC5
:106DD4000514096E000E06140A6E800E07140B6E5D
:106DE4007F0E08140C6E09500A100B100C10D8A456
:106DF400FEEF36F000EF37F008EF37F0000E056EC7
:106E0400000E066E000E076E000E086E0550011887
:106E14000FE1065002180CE10750031809E108506D
:106E24000418D8B418EF37F01AEF37F01DEF37F025
:106E3400D8901EEF37F0D8801200343435343B6ECE
:106E44003B50D8A428EF37F02AEF37F034EF37F06F
:106E5400000E326E000E336E000E346E000E356E70
:106E6400A1EF37F032C036F033C037F034C038F019
:106E740035C039F0200E44EF37F0D890393238322B
:106E840037323632E82E3FEF37F036503A6E348ED2
:106E9400FF0E3216FF0E3316FF0E3416000E351693
:106EA400960E3B5E3BBE5BEF37F059EF37F071EF68
:106EB40037F03B50800A970FD8B063EF37F065EF97
:106EC40037F067EF37F02AEF37F0D89035323432A5
:106ED400333232323B3E67EF37F089EF37F01F0E23
:106EE4003B6477EF37F079EF37F081EF37F02AEF33
:106EF40037F0D89032363336343635363B063B508D
:106F0400D8A487EF37F089EF37F07BEF37F03A50AA
:106F1400D8B48FEF37F091EF37F099EF37F0351E93
:106F2400341E331E326C000E33223422352232C01A
:106F340032F033C033F034C034F035C035F01200D1
:106F4400096E0950D8B4A9EF37F0ABEF37F0CDEFA5
:106F540037F004BEB2EF37F0B0EF37F0CDEF37F0D3
:106F640001C005F002C006F003C007F004C008F039
:106F7400051E061E071E081E052A000E06220722ED
:106F8400082205C00BF006C00CF007C00DF008C0C5
:106F94000EF0D5EF37F001C00BF002C00CF003C0C7
:106FA4000DF004C00EF00150021003100410D8A418
:106FB400DEEF37F0E0EF37F0EAEF37F0000E016E66
:106FC400000E026E000E036E000E046E7BEF38F0AE
:106FD400960E0A6EF4EF37F00A2AD8900E320D326C
:106FE4000C320B32000E0B14056E000E0C14066EE0
:106FF400000E0D14076EFE0E0E14086E05500610DA
:1070040007100810D8A409EF38F00BEF38F0EEEFB2
:1070140037F019EF38F00A2A010E0B26000E0C2265
:107024000D220E22D8900E320D320C320B32000E8D
:107034000B14056E000E0C14066E000E0D14076E74
:10704400FF0E0E14086E0550061007100810D8A481
:107054002EEF38F030EF38F00DEF38F038EF38F02D
:107064000A06D8900B360C360D360E360DBE3DEFA3
:1070740038F03FEF38F047EF38F0020E0A6045EF82
:1070840038F047EF38F032EF38F00AB04CEF38F010
:107094004EEF38F04FEF38F00D9ED8900A320AC008
:1070A40005F0066A076A086A05C008F0076A066AF6
:1070B400056A05500B1206500C1207500D120850A9
:1070C4000E120950D8B469EF38F06BEF38F073EF53
:1070D40038F004BE72EF38F070EF38F073EF38F028
:1070E4000E8E0BC001F00CC002F00DC003F00EC0F8
:1070F40004F012000600D9CF3EF0DACF3FF0F3CF10
:1071040040F0F4CF41F0F6CF42F0F7CF43F0F8CFA0
:1071140044F0F5CF45F0F2A492EF38F094EF38F054
:107124009AEF38F0EC0ED76E770ED66EF294C282D8
:107134009DAC9FEF38F0A1EF38F059EF39F09EACD9
:10714400A6EF38F0A8EF38F059EF39F0C4503D6E8F
:107154003C6AC3503C244E6E000E3D204F6E4EC020
:1071640001F04FC002F0000E02BEFF0E036E046E6B
:10717400010EA2EC37F001C019F002C01AF003C0EE
:107184001BF004C01CF00A0E1D6E280E1E6EA00E0D
:107194001F6E3B0E206E08EC3BF019C04AF01AC07B
:1071A4004BF01BC04CF01CC04DF04AC032F04BC039
:1071B40033F04CC034F04DC035F01FEC37F032C022
:1071C40048F033C049F0000E1D6E000E1E6EC80E4E
:1071D4001F6E420E206E48C001F049C002F0000E3E
:1071E40002BEFF0E036E046E010EA2EC37F001C066
:1071F40015F002C016F003C017F004C018F04AC01E
:1072040011F04BC012F04CC013F04DC014F008EC58
:1072140036F011C019F012C01AF013C01BF014C0DC
:107224001CF008EC3BF019C032F01AC033F01BC05C
:1072340034F01CC035F01FEC37F032C046F033C0D8
:1072440047F04AC001F04BC002F04CC003F04DC0FF
:1072540004F05AC005F05BC006F05CC007F05DC0E6
:1072640008F0CAEC36F0D8B03AEF39F03CEF39F018
:1072740058EF39F04AC05AF04BC05BF04CC05CF098
:107284004DC05DF0500E0D6EF70E0E6E7E0E0F6E3D
:1072940048C010F049C011F046C012F047C013F0C6
:1072A4006BEC39F0500E026ED0EC35F09E9C45C06C
:1072B400F5FF44C0F8FF43C0F7FF42C0F6FF41C0EA
:1072C400F4FF40C0F3FF3FC0DAFF3EC0D9FF5E9237
:1072D4001100100E176EF2EF3AF0250E1E18D8B4F6
:1072E40076EF39F078EF39F080EF39F00D50D96E40
:1072F400DA6A1EC0DFFF0D2AF2EF3AF0000E1D6EAF
:10730400000E1C6E1B6A8AEF39F01B840E4A0F2A8A
:107314000EC0F6FF0FC0F7FF0800F550300AD8B4CE
:1073240087EF39F096EF39F00EC0F6FF0FC0F7FF84
:107334000800F550B8EC35F0D8A0A3EF39F0A5EF6C
:1073440039F0D9EF39F0000E1D6E000E1C6E1CC012
:1073540001F01DC002F0000E046E0A0E036EA5ECCF
:1073640035F001C01CF002C01DF00EC0F6FF0FC0C6
:10737400F7FF0800F5CF14F0D00E1424156E166A2A
:10738400FF0E162215501C2616501D220E4A0F2AD7
:107394000EC0F6FF0FC0F7FF0800F550B8EC35F04B
:1073A400D8B0D7EF39F0D9EF39F0A9EF39F00EC0E2
:1073B400F6FF0FC0F7FF0E4A0F2A0800F5CF1EF0A4
:1073C4001E50000AD8B403EF3BF0640AD8B4F1EFBE
:1073D40039F00D0AD8B4F1EF39F0F2EF3AF0175062
:1073E400D96EDA6ADECF19F0DDCF1AF0020E172655
:1073F4001ABE01EF3AF0FFEF39F007EF3AF0030E4F
:107404001B12196C1A1ED8B01A2A010E1E6E1E50B9
:10741400020DED0EF324F66E7E0EF420F76E0900D5
:10742400F550195C0900F5501A58D8B01CEF3AF021
:107434001EEF3AF020EF3AF02AEF3AF01E2A050E3A
:107444001E18D8A428EF3AF02AEF3AF009EF3AF0E0
:107454001C501D10D8B431EF3AF033EF3AF041EF3D
:107464003AF01BC014F0030E1416D8B43CEF3AF0F3
:107474003EEF3AF041EF3AF01C06D8A01D061E502C
:10748400146E156A1C50145C1550800A166E1D503B
:10749400800A1658D8B051EF3AF053EF3AF059EF4A
:1074A4003AF01E501C5E000E1D5A5DEF3AF0000EBD
:1074B4001D6E000E1C6E1BA462EF3AF064EF3AF0EE
:1074C40092EF3AF01BC014F0030E1416D8B46DEF0B
:1074D4003AF06FEF3AF075EF3AF00D50D96EDA6A80
:1074E4002D0EDF6E0D2A1C501D10D8B47CEF3AF01F
:1074F4007EEF3AF0BEEF3AF00D50D96EDA6A300EF4
:10750400DF6E0D2A1C06D8A01D061C501D10D8A421
:107514008EEF3AF090EF3AF07EEF3AF0BEEF3AF0A9
:107524001C501D10D8B499EF3AF09BEF3AF0ADEF30
:107534003AF00D50D96EDA6A200EDF6E0D2A1C0661
:10754400D8A01D061C501D10D8A4ABEF3AF0ADEF27
:107554003AF09BEF3AF01BC014F0030E1416D8B4A3
:10756400B6EF3AF0B8EF3AF0BEEF3AF00D50D96EFC
:10757400DA6A2D0EDF6E0D2A1EC018F0E9EF3AF01C
:107584001850020DED0EF324F66E7E0EF420F76E05
:107594000900F5CF03F00A00F5CF04F019C001F09B
:1075A4001AC002F090EC36F001C008F002C009F0F5
:1075B400000E0B6E0A0E0A6E2BEC36F00850300FDC
:1075C4001E6E0D50D96EDA6A1EC0DFFF0D2A180632
:1075D4001828D8A4F0EF3AF0F2EF3AF0C2EF3AF0FC
:1075E4000EC0F6FF0FC0F7FF0E4A0F2A0800F5CFB2
:1075F4001EF01E50D8A401EF3BF003EF3BF06FEFF9
:1076040039F00D50D96EDA6ADF6A12001C50800B13
:10761400256E1C501C242B6E1BAE13EF3BF015EF94
:107624003BF016EF3BF02B802B50D8B41CEF3BF013
:107634001EEF3BF031EF3BF02B28D8A424EF3BF0B6
:1076440026EF3BF02EEF3BF0000E196E000E1A6E83
:10765400000E1B6E000E1C6E1B8E39EF3BF0000EED
:10766400196E000E1A6E000E1B6E000E1C6E20505A
:10767400800B251A205020242A6E1FAE44EF3BF0C5
:1076840046EF3BF047EF3BF02A802A50D8B44DEF49
:107694003BF04FEF3BF062EF3BF02A28D8A455EFC4
:1076A4003BF057EF3BF05FEF3BF0000E1D6E000E1A
:1076B4001E6E000E1F6E000E206E1F8E6AEF3BF0D2
:1076C400000E1D6E000E1E6E000E1F6E000E206E4C
:1076D4002A50D8B470EF3BF072EF3BF07AEF3BF0F6
:1076E4002B50D8A478EF3BF07AEF3BF084EF3BF0DB
:1076F400000E196E000E1A6E000E1B6E000E1C6E2C
:107704001AEF3DF01F501902F3CF30F0F4CF31F0EF
:107714003050266E276A286A296A31502C6E2D6AE9
:107724002E6A2F6A1E501A02F3CF30F0F4CF31F0D4
:1077340030502626000E27222822292231502C26BA
:10774400000E2D222E222F221D501B02F3CF30F0CB
:10775400F4CF31F030502626000E27222822292289
:1077640031502C26000E2D222E222F2228C029F043
:1077740027C028F026C027F0266A1D501A02F3CF2E
:1077840030F0F4CF31F03050262631502722000E4D
:107794002822000E29221E501902F3CF30F0F4CF14
:1077A40031F03050262631502722000E2822000EB8
:1077B400292228C029F027C028F026C027F0266AED
:1077C4001D501902F3CF30F0F4CF31F0305026269B
:1077D40031502722000E2822000E29221F501A029F
:1077E400F3CF30F0F4CF31F030502C2631502D222D
:1077F400000E2E22000E2F221E501B02F3CF30F05B
:10780400F4CF31F030502C2631502D22000E2E2290
:10781400000E2F221F501B02F3CF30F0F4CF31F0B3
:107824003050216E3150226E236A246A23C024F022
:1078340022C023F021C022F0216A21502C2622509C
:107844002D2223502E2224502F2226C021F027C07F
:1078540022F028C023F029C024F0190E37EF3CF0A1
:10786400D8902432233222322132E82E32EF3CF0F7
:1078740021502C2622502D2223502E2224502F22F8
:1078840028C029F027C028F026C027F0266A2A50ED
:107894002BC021F0226A2126000E2222820E2124EE
:1078A400306EFF0E2220316E6DEF3CF0D8902C36F6
:1078B4002D362E362F3629AE62EF3CF064EF3CF0C5
:1078C40065EF3CF02C80D8902636273628362936AA
:1078D4003006D8A031062EAE72EF3CF074EF3CF0C7
:1078E40058EF3CF02A6A29AE7AEF3CF07CEF3CF08A
:1078F400A0EF3CF0FF0E2614216EFF0E2714226E1B
:10790400FF0E2814236E7F0E2914246E215022109A
:1079140023102410D8B491EF3CF093EF3CF097EF90
:107924003CF0010E2A6EA0EF3CF02CA09CEF3CF042
:107934009EEF3CF0A0EF3CF093EF3CF02A50D8B41B
:10794400A6EF3CF0A8EF3CF0CCEF3CF0010E2C2667
:10795400000E2D222E222F222FA0B3EF3CF0B5EFE4
:107964003CF0CCEF3CF02CC021F02DC022F02EC016
:1079740023F02FC024F02434243223322232213243
:1079840021C02CF022C02DF023C02EF024C02FF0F3
:10799400304A312A31BED7EF3CF0315008E130286B
:1079A400D8A0D7EF3CF0D9EF3CF0E3EF3CF0000E69
:1079B4002C6E000E2D6E800E2E6E7F0E2F6E10EF2D
:1079C4003DF031BEF0EF3CF0315006E13004D8B068
:1079D400EEEF3CF0F0EF3CF0FBEF3CF0000E2C6ED1
:1079E400000E2D6E000E2E6E000E2F6E256A10EF07
:1079F4003DF030C02BF0FF0E2C16FF0E2D167F0E1F
:107A04002E16000E2F162BA00AEF3DF00CEF3DF0C2
:107A14000DEF3DF02E8ED8902B302F6E25502F1267
:107A24002CC019F02DC01AF02EC01BF02FC01CF072
:107A340012000450800B0D6E045004240F6E03AE2C
:107A440026EF3DF028EF3DF029EF3DF00F800F5079
:107A5400D8B42FEF3DF031EF3DF045EF3DF00F2866
:107A6400D8A437EF3DF039EF3DF041EF3DF0000E83
:107A7400016E000E026E000E036E000E046E038E85
:107A8400046A4DEF3DF0000E016E000E026E000E12
:107A9400036E000E046E0850800B0E6E0D500E180F
:107AA400D8B457EF3DF059EF3DF05AEF3DF00D8C4F
:107AB400085008240E6E07AE62EF3DF064EF3DF00F
:107AC40065EF3DF00E800E50D8B46BEF3DF06DEFD6
:107AD4003DF081EF3DF00E28D8A473EF3DF075EF33
:107AE4003DF07DEF3DF0000E056E000E066E000EBB
:107AF400076E000E086E078E086A89EF3DF0000ECF
:107B0400056E000E066E000E076E000E086E0F5016
:107B14000E5CD8B090EF3DF092EF3DF0B9EF3DF040
:107B24000DAC97EF3DF099EF3DF09BEF3DF0800EEB
:107B34000D1A0FC010F00EC00FF010C00EF001C0EF
:107B440010F005C001F010C005F002C010F006C02E
:107B540002F010C006F003C010F007C003F010C01C
:107B640007F004C010F008C004F010C008F0106A58
:107B74000F500EC009F00A6A095E000E0A5A0ABEC6
:107B8400CDEF3DF00A5009E11A0E095CD8A0CDEF03
:107B94003DF0CFEF3DF006EF3EF001500210031030
:107BA4000410D8A4D8EF3DF0DBEF3DF0010EDCEF7C
:107BB4003DF0000E106E000E016E000E026E000EFF
:107BC400036E000E046E0EC00FF00FEF3EF010A017
:107BD400EEEF3DF0F0EF3DF0F6EF3DF0D8901030D1
:107BE4000109106EF8EF3DF0D890103201A0FDEFBE
:107BF4003DF0FFEF3DF000EF3EF0108E0434043210
:107C04000332023201320F2A0E500F5CD8A00DEF5E
:107C14003EF00FEF3EF0E9EF3DF00DBC14EF3EF007
:107C240016EF3EF056EF3EF00F50D8A41CEF3EF096
:107C34001EEF3EF028EF3EF0000E016E000E026EC5
:107C4400000E036E000E046E75EF3FF00550012622
:107C540006500222075003220850042204A035EFE4
:107C64003EF037EF3EF0E3EF3EF010A03CEF3EF085
:107C74003EEF3EF044EF3EF0D89010300109106E14
:107C840046EF3EF0D890103201A04BEF3EF04DEF9E
:107C94003EF04EEF3EF0108E0434043203320232D2
:107CA40001320F2AE3EF3EF00550015C0650025802
:107CB400075003580450800A096E0850800A095876
:107CC400D8B067EF3EF069EF3EF094EF3EF001501C
:107CD400055C096E025006580A6E035007580B6E75
:107CE400045008580C6EFF0E0924016EFF0E0A2082
:107CF400026EFF0E0B20036EFF0E0C20046E800E2E
:107D04000D1A106C1050D8A48AEF3EF08CEF3EF0A0
:107D14009CEF3EF0010E0126000E022203220422F3
:107D24009CEF3EF00550015E0650025A0750035A7C
:107D34000850045A0150021003100410D8A4A5EFEF
:107D44003EF0A7EF3EF0DCEF3EF01050D8A4ADEFCC
:107D54003EF0AFEF3EF0DCEF3EF0000E016E000EA1
:107D6400026E000E036E000E046E75EF3FF0D890A5
:107D7400013602360336043610AEC3EF3EF0C5EFCB
:107D84003EF0C6EF3EF0018010A0CBEF3EF0CDEF09
:107D94003EF0D1EF3EF0D8801036D3EF3EF0D890CD
:107DA40010360F50D8B4D9EF3EF0DBEF3EF0DCEFE5
:107DB4003EF00F0603AEE1EF3EF0E3EF3EF0B9EF25
:107DC4003EF00E6A10AEE9EF3EF0EBEF3EF003EF4B
:107DD4003FF010C009F07F0E0916D8B4F4EF3EF05E
:107DE400F6EF3EF0FAEF3EF0010E0E6E03EF3FF0B9
:107DF40001A0FFEF3EF001EF3FF003EF3FF0F6EF9D
:107E04003EF00E50D8B409EF3FF00BEF3FF036EFE1
:107E14003FF0010E0126000E02220322042204A0D8
:107E240016EF3FF018EF3FF036EF3FF001C009F0D6
:107E340002C00AF003C00BF004C00CF00C340C3286
:107E44000B320A32093209C001F00AC002F00BC039
:107E540003F00CC004F00F28D8B433EF3FF035EF33
:107E64003FF036EF3FF00F2A0F28D8B43CEF3FF035
:107E74003EEF3FF046EF3FF00F50D8A444EF3FF001
:107E840046EF3FF057EF3FF0000E016E000E026E1A
:107E9400000E036E000E046E0F50D8A454EF3FF092
:107EA40056EF3FF057EF3FF00D6A0FA05CEF3FF045
:107EB4005EEF3FF061EF3FF0038E62EF3FF0039E11
:107EC400D8900F30046E0DAE6AEF3FF06CEF3FF0C8
:107ED4006DEF3FF0048E01C001F002C002F003C058
:107EE40003F004C004F012000001000A006400E87A
:0C7EF40003102725642E253032640000A6
:020000040030CA
:0E000000FF081F1EFF8281FF0FC00FE00F40A0
:00000001FF
