:0400000007EF00F016
:0A0008003582DCED09F010EF0AF07C
:10060000000000016351800B706F63516325776FA9
:1006100062AF0DEF03F00FEF03F010EF03F07781FF
:100620007751D8B416EF03F018EF03F02CEF03F076
:100630007729D8A41EEF03F020EF03F028EF03F092
:10064000000E606F000E616F000E626F000E636F30
:10065000628F636B34EF03F0000E606F000E616F0A
:10066000000E626F000E636F6751800B701B675145
:100670006725786F66AF3FEF03F041EF03F042EF7D
:1006800003F078817851D8B448EF03F04AEF03F0D3
:100690005EEF03F07829D8A450EF03F052EF03F097
:1006A0005AEF03F0000E646F000E656F000E666F68
:1006B000000E676F668F676B66EF03F0000E646F66
:1006C000000E656F000E666F000E676F6451651156
:1006D00066116711D8A46FEF03F071EF03F089EF93
:1006E00003F0000E606F000E616F000E626F000E6F
:1006F000636F800E62137F0E63137051631360C0CB
:1007000060F061C061F062C062F063C063F0C9EF85
:1007100004F07751D8A48FEF03F091EF03F09BEF33
:1007200003F0000E606F000E616F000E626F000E2E
:10073000636FC9EF04F0785177C068F0696B685F48
:10074000000E695B7F0E6825716F000E6921726F64
:1007500060C06CF061C06DF062C06EF063C06FF09D
:10076000000E606F000E616F000E626F000E636F0F
:10077000000E736F000E746F000E756F000E766FB3
:10078000786BFBEF03F07851D8B4C9EF03F0CBEFEF
:1007900003F0E2EF03F0D8906C376D376E376F37A8
:1007A000D890603761376237633776AFDAEF03F09E
:1007B000DCEF03F0DDEF03F06081D890733774371E
:1007C0007537763764516C5D65516D5966516E5958
:1007D00067516F59D8A0EFEF03F0F1EF03F0FAEF94
:1007E00003F0768D64516C5F65516D5B66516E5B95
:1007F00067516F5B782B190E786501EF04F003EFFA
:1008000004F0C3EF03F06C516D116E116F11D8B489
:100810000CEF04F00EEF04F026EF04F0738126EFE6
:1008200004F0D890603761376237633776AF1BEFDB
:1008300004F01DEF04F01EEF04F06081D8907337D0
:100840007437753776377107D8A0720762AF2BEF10
:1008500004F02DEF04F011EF04F0786B76AF33EF76
:1008600004F035EF04F059EF04F0FF0E7315686FD4
:10087000FF0E7415696FFF0E75156A6F7F0E761582
:100880006B6F685169116A116B11D8B44AEF04F0AB
:100890004CEF04F050EF04F0010E786F59EF04F0C4
:1008A00060A155EF04F057EF04F059EF04F04CEF5E
:1008B00004F07851D8B45FEF04F061EF04F085EFF5
:1008C00004F0010E6027000E61236223632363A1FD
:1008D0006CEF04F06EEF04F085EF04F060C068F098
:1008E00061C069F062C06AF063C06BF06B356B3356
:1008F0006A336933683368C060F069C061F06AC008
:1009000062F06BC063F0714B722B72BF90EF04F01A
:10091000725108E17129D8A090EF04F092EF04F031
:100920009DEF04F0000E726F7169000E606F000E93
:10093000616F000E626F000E636F72BFAAEF04F06A
:10094000725106E17105D8B0A8EF04F0AAEF04F0E7
:10095000B7EF04F0000E726F000E716F000E606F43
:10096000000E616F000E626F000E636F706B71C0DE
:1009700077F077A1BEEF04F0C0EF04F0C3EF04F00E
:10098000628FC4EF04F0629FD8907731636F7DEF80
:1009900003F012000450800B116E04500424186EF2
:1009A00003AED5EF04F0D7EF04F0D8EF04F01880D1
:1009B0001850D8B4DEEF04F0E0EF04F0F4EF04F0E8
:1009C0001828D8A4E6EF04F0E8EF04F0F0EF04F004
:1009D000000E016E000E026E000E036E000E046E1D
:1009E000038E046AFCEF04F0000E016E000E026E2E
:1009F000000E036E000E046E0850800B111A085092
:100A00000824196E07AE07EF05F009EF05F00AEFAD
:100A100005F019801950D8B410EF05F012EF05F069
:100A200026EF05F01928D8A418EF05F01AEF05F005
:100A300022EF05F0000E056E000E066E000E076E2A
:100A4000000E086E078E086A2EEF05F0000E056E88
:100A5000000E066E000E076E000E086E05500610A2
:100A600007100810D8A437EF05F039EF05F051EF63
:100A700005F0000E016E000E026E000E036E000EF9
:100A8000046E800E03127F0E04121150041201C076
:100A900001F002C002F003C003F004C004F091EFC3
:100AA00006F01850D8A457EF05F059EF05F063EFA2
:100AB00005F0000E016E000E026E000E036E000EB9
:100AC000046E91EF06F0195018C009F00A6A095E29
:100AD000000E0A5A7F0E0924126E000E0A20136EB1
:100AE00001C00DF002C00EF003C00FF004C010F002
:100AF000000E016E000E026E000E036E000E046EFC
:100B0000000E146E000E156E000E166E000E176E9F
:100B1000196AC3EF05F01950D8B491EF05F093EFBF
:100B200005F0AAEF05F0D8900D360E360F361036C8
:100B3000D890013602360336043617AEA2EF05F020
:100B4000A4EF05F0A5EF05F00180D8901436153616
:100B50001636173605500D5C06500E5807500F58C4
:100B600008501058D8A0B7EF05F0B9EF05F0C2EF64
:100B700005F0178C05500D5E06500E5A07500F5A9F
:100B80000850105A192A190E1964C9EF05F0CBEF55
:100B900005F08BEF05F00D500E100F101010D8B4AB
:100BA000D4EF05F0D6EF05F0EEEF05F01480EEEF90
:100BB00005F0D890013602360336043617AEE3EF5F
:100BC00005F0E5EF05F0E6EF05F00180D89014366A
:100BD0001536163617361206D8A0130603AEF3EFF5
:100BE00005F0F5EF05F0D9EF05F0196A17AEFBEF48
:100BF00005F0FDEF05F021EF06F0FF0E1414096E6D
:100C0000FF0E15140A6EFF0E16140B6E7F0E1714CE
:100C10000C6E09500A100B100C10D8B412EF06F02D
:100C200014EF06F018EF06F0010E196E21EF06F032
:100C300001A01DEF06F01FEF06F021EF06F014EF04
:100C400006F01950D8B427EF06F029EF06F04DEF63
:100C500006F0010E0126000E02220322042204A047
:100C600034EF06F036EF06F04DEF06F001C009F064
:100C700002C00AF003C00BF004C00CF00C340C32BC
:100C80000B320A32093209C001F00AC002F00BC06F
:100C900003F00CC004F0124A132A13BE58EF06F0FA
:100CA000135008E11228D8A058EF06F05AEF06F0CA
:100CB00065EF06F0000E136E1268000E016E000E56
:100CC000026E000E036E000E046E13BE72EF06F08D
:100CD000135006E11204D8B070EF06F072EF06F080
:100CE0007FEF06F0000E136E000E126E000E016E06
:100CF000000E026E000E036E000E046E116A12C02A
:100D000018F018A086EF06F088EF06F08BEF06F0DB
:100D1000038E8CEF06F0039ED8901830046E45EFDA
:100D200005F01200D0EF06F0000E8F6F000E906FEE
:100D3000800E916F3F0E926FF7EF06F0000E8F6FEF
:100D4000000E906F000E916F400E926FF7EF06F05D
:100D5000000E8F6F000E906F800E916F400E926F9D
:100D6000F7EF06F0000E8F6F000E906F000E916F80
:100D7000410E926FF7EF06F0000E8F6F000E906F2E
:100D8000800E916F410E926FF7EF06F0000E8F6F9D
:100D9000000E906F000E916F420E926FF7EF06F00B
:100DA00083C085F084C086F000018651000AD8B463
:100DB000DCEF06F0F7EF06F08551000AD8B494EFA7
:100DC00006F0010AD8B49EEF06F0030AD8B4A8EFE3
:100DD00006F0010AD8B4B2EF06F0070AD8B4BCEFA7
:100DE00006F0010AD8B4C6EF06F0F7EF06F0000EE1
:100DF000606F000E616F800E626F3F0E636F8FC079
:100E000064F090C065F091C066F092C067F001ECAC
:100E100003F060C087F061C088F062C089F063C0F1
:100E20008AF087C060F088C061F089C062F08AC033
:100E300063F0000E0001646F000E656F000E666FB8
:100E4000400E676F01EC03F060C08BF061C08CF066
:100E500062C08DF063C08EF0850E0001646FB10E2C
:100E6000656F050E666F390E676F8BC060F08CC0C2
:100E700061F08DC062F08EC063F001EC03F060C0E1
:100E800079F061C07AF062C07BF063C07CF00FEC57
:100E900008F079C097F07AC098F097C083F098C0B6
:100EA00084F0120090EF07F0000E306E000E316EED
:100EB000800E326E3F0E336EB6EF07F0000E306ECE
:100EC000000E316E000E326E400E336EB6EF07F03C
:100ED000000E306E000E316E800E326E400E336E9C
:100EE000B6EF07F0000E306E000E316E000E326E5F
:100EF000410E336EB6EF07F0000E306E000E316E0D
:100F0000800E326E410E336EB6EF07F0000E306E7B
:100F1000000E316E000E326E420E336EB6EF07F0E9
:100F200024C026F025C027F02750000AD8B49BEF34
:100F300007F0B6EF07F02650000AD8B454EF07F0D8
:100F4000010AD8B45EEF07F0030AD8B468EF07F0DF
:100F5000010AD8B472EF07F0070AD8B47CEF07F0A3
:100F6000010AD8B486EF07F0B6EF07F0000E016E65
:100F7000000E026E800E036E3F0E046E30C005F050
:100F800031C006F032C007F033C008F0CAEC04F0FC
:100F900001C028F002C029F003C02AF004C02BF0E1
:100FA00028C001F029C002F02AC003F02BC004F0D1
:100FB000000E056E000E066E000E076E400E086EE7
:100FC000CAEC04F001C02CF002C02DF003C02EF0DA
:100FD00004C02FF0850E056EB10E066E050E076E6D
:100FE000390E086E2CC001F02DC002F02EC003F0A7
:100FF0002FC004F0CAEC04F001C01AF002C01BF0CC
:1010000003C01CF004C01DF093EC08F01AC097F068
:101010001BC098F097C024F098C025F01200000182
:101020007B357C35826F8251D8A419EF08F01BEF15
:1010300008F025EF08F0000E796F000E7A6F000EB1
:101040007B6F000E7C6F92EF08F079C07DF07AC064
:101050007EF07BC07FF07CC080F0200E35EF08F082
:10106000D89080337F337E337D33E82E30EF08F025
:101070007D51816F7B8FFF0E7917FF0E7A17FF0E60
:101080007B17000E7C17960E825F82BF4CEF08F034
:101090004AEF08F062EF08F08251800A970FD8B04B
:1010A00054EF08F056EF08F058EF08F01BEF08F087
:1010B000D8907C337B337A337933823F58EF08F012
:1010C0007AEF08F01F0E826568EF08F06AEF08F00B
:1010D00072EF08F01BEF08F0D89079377A377B373A
:1010E0007C3782078251D8A478EF08F07AEF08F0B5
:1010F0006CEF08F08151D8B480EF08F082EF08F06F
:101100008AEF08F07C1F7B1F7A1F796D000E7A230F
:101110007B237C2379C079F07AC07AF07BC07BF0A6
:101120007CC07CF012001C341D34236E2350D8A4E4
:101130009CEF08F09EEF08F0A8EF08F0000E1A6E82
:10114000000E1B6E000E1C6E000E1D6E15EF09F0DA
:101150001AC01EF01BC01FF01CC020F01DC021F0E3
:10116000200EB8EF08F0D890213220321F321E3204
:10117000E82EB3EF08F01E50226E1C8EFF0E1A16DA
:10118000FF0E1B16FF0E1C16000E1D16960E235E7C
:1011900023BECFEF08F0CDEF08F0E5EF08F02350C5
:1011A000800A970FD8B0D7EF08F0D9EF08F0DBEF3F
:1011B00008F09EEF08F0D8901D321C321B321A3214
:1011C000233EDBEF08F0FDEF08F01F0E2364EBEF8A
:1011D00008F0EDEF08F0F5EF08F09EEF08F0D8907A
:1011E0001A361B361C361D3623062350D8A4FBEFB7
:1011F00008F0FDEF08F0EFEF08F02250D8B403EF4D
:1012000009F005EF09F00DEF09F01D1E1C1E1B1E55
:101210001A6C000E1B221C221D221AC01AF01BC0C1
:101220001BF01CC01CF01DC01DF0120054EF09F093
:101230008B808B828B848B868B888B8A8D908D9212
:101240007BEF09F08B908B828B848B968B988B9A9B
:101250008D908D927BEF09F08B808B828B948B86A7
:101260008B888B9A8D808D927BEF09F08B808B829F
:101270008B848B868B988B9A8D808D927BEF09F077
:101280008B908B828B848B968B988B8A8D808D92A2
:101290007BEF09F08B808B928B848B868B988B8A6B
:1012A0008D808D927BEF09F060C062F061C063F0C9
:1012B00000016351000AD8B460EF09F07BEF09F038
:1012C0006251000AD8B418EF09F0010AD8B422EF2D
:1012D00009F0030AD8B42CEF09F0010AD8B436EFAC
:1012E00009F0070AD8B440EF09F0010AD8B44AEF70
:1012F00009F07BEF09F012008C8E0001956B1CEC5D
:101300000AF099C060F09AC061F016EC09F099C03B
:1013100083F09AC084F092EC06F083C097F084C00A
:1013200098F025EC0AF0000E81B0010E0001966FD6
:101330009551D8A49EEF09F0A0EF09F0C9EF09F08C
:101340009605D8A4A6EF09F0A8EF09F0C9EF09F0B7
:10135000994B9A2B9A5109E1060E995DD8A0B3EFEB
:1013600009F0B5EF09F0B9EF09F0000E9A6F000E21
:10137000996F99C060F09AC061F016EC09F099C0BD
:1013800083F09AC084F092EC06F083C097F084C09A
:1013900098F096C095F0020E0001946F040E936FC2
:1013A000BA0EE82EFED7932FFCD7942FFAD7000061
:1013B00093EF09F007EF00F00600F2A4E2EF09F066
:1013C000E4EF09F00EEF0AF0F29400019707D8A0BD
:1013D000980797519811D8A4F0EF09F0F2EF09F0AF
:1013E0000EEF0AF08CBEF7EF09F0FAEF09F0010EEC
:1013F000FBEF09F0000EFF0A346E343234328C50A9
:1014000034187F0B34188C6E99C024F09AC025F0E4
:1014100052EC07F024C097F025C098F035921100E7
:1014200000019A6B996B986B976B35903592000E13
:10143000F86E00017CEF09F0730ED36E9380959ED9
:10144000C00E946E040E966E1200D58CD59AD58679
:0C145000F80ED516F28EF28AD58E12002E
:020000040030CA
:0E000000FF081F1EFF8281FF0FC00FE00F40A0
:00000001FF
